:020000040800F2
:10000000D8050020A10E0008C9020008CB02000894
:10001000D5020008DF020008E90200080000000025
:10002000000000000000000000000000F3020008D3
:10003000F502000800000000F7020008F9020008BD
:10004000BB0E0008BB0E0008BB0E0008BB0E00086C
:10005000BB0E0008BB0E0008BB0E0008BB0E00085C
:10006000BB0E0008BB0E0008BB0E0008BB0E00084C
:10007000BB0E0008BB0E0008BB0E0008BB0E00083C
:10008000BB0E0008BB0E00087B030008BB0E000877
:10009000BB0E0008BB0E0008BB0E0008770300086B
:1000A000BB0E0008BB0E0008BB0E0008BB0E00080C
:1000B000510300085D03000869030008BB0E000837
:1000C000BB0E0008BB0E0008BB0E0008BB0E0008EC
:1000D000BB0E0008FB020008BB0E0008BB0E0008A8
:1000E00075030008BB0E0008BB0E0008BB0E00081D
:1000F000BB0E0008BB0E0008BB0E0008BB0E0008BC
:10010000BB0E0008BB0E0008BB0E0008BB0E0008AB
:1001100031030008BB0E0008BB0E0008BB0E000830
:1001200079030008BB0E0008BB0E0008BB0E0008D8
:10013000BB0E0008BB0E0008BB0E0008BB0E00087B
:10014000BB0E0008BB0E0008BB0E0008BB0E00086B
:10015000BB0E0008BB0E0008BB0E0008BB0E00085B
:10016000BB0E0008BB0E0008BB0E0008BB0E00084B
:10017000BB0E0008BB0E0008BB0E0008BB0E00083B
:10018000BB0E0008BB0E0008DFF80CD002F0F4FE36
:10019000004800479D010008D805002000250024E4
:1001A00002F04AFE72B600F015F900F066F900F0B0
:1001B000B7F900F0C5F900F0EFF902F083FB62B681
:1001C00018A002F00BFF1FA002F008FF002412E0AD
:1001D0004FF47A7000F0FBF9C4F1090125A002F098
:1001E000FDFE2A480088012804D1294801F061FB5E
:1001F000C5B202E0641C0A2CEADB00BF792D01D0F5
:10020000592D05D1234802F0E9FE00F0CBFC06E0B1
:10021000214922A002F0E2FE1F4800F047FB00BF88
:10022000FEE7000057656C636F6D6520746F2053A7
:10023000544D33324634303720426F6172640D0AB8
:1002400000000000507265737320592F7920746F7D
:1002500020456E74657220426F6F74204D6F646527
:1002600020696E203130207365636F6E64730D0AF0
:10027000000000002564205365636F6E64205265A2
:100280006D61696E696E670D0A0000000000002054
:10029000004C00408034000800C00008456E7465C2
:1002A00072696E67204170706C69636174696F6E0A
:1002B000206174206C6F636174696F6E2025303823
:1002C00078200D0A0000000070472CA002F086FE86
:1002D00000BFFEE72CA002F081FE00BFFEE72FA0CA
:1002E00002F07CFE00BFFEE72FA002F077FE00BF09
:1002F000FEE7704770477047704710B540F22551D0
:100300002C4801F098FB90B140F22551294801F0AA
:10031000C9FB284801F0CDFAC1B227480468601C27
:10032000254A10602548015501202549087010BD57
:1003300010B540F22551234801F07DFB38B140F261
:100340002551204801F0AEFB01201F49088010BD57
:1003500010B50121880702F09BF910BD10B50121ED
:100360001A4802F095F910BD10B50121184802F0A5
:100370008FF910BD704770477047704768617264AD
:100380006661756C740A00004D656D4D616E616744
:1003900065206661756C740A000000004275734642
:1003A00061756C740A00000055736167654661757C
:1003B0006C740A000010014004000020600000205E
:1003C00008000020004C0040000000200004004015
:1003D0000008004000B587B00121084601F026F86A
:1003E0000121102001F066F807220921664800F07B
:1003F00062FE07220A21644800F05DFE4FF400709F
:10040000059002208DF8180000208DF81A000220B7
:100410008DF8190001208DF81B0005A95A4800F03D
:10042000BFFD4FF48060059001208DF81A00002078
:100430008DF81B0005A9544800F0B2FD4FF4E130DF
:1004400001900020ADF80800ADF80A00ADF80C00EE
:10045000ADF810000C20ADF80E0001A94B4801F0DA
:1004600071F9012240F22551484801F0A9FA012111
:10047000464801F0EFF907B000BD00B587B0012193
:10048000042000F0D3FF0121C80401F002F8082283
:100490000A213F4800F00FFE08220B213C4800F0E3
:1004A0000AFE4FF48060059002208DF818000020AD
:1004B0008DF81A0002208DF8190001208DF81B001C
:1004C00005A9334800F06CFD4FF400600590012051
:1004D0008DF81A0000208DF81B0005A92C4800F0AB
:1004E0005FFD4FF4E13001900020ADF80800ADF859
:1004F0000A00ADF80C00ADF810000C20ADF80E00AD
:1005000001A9244801F01EF9012240F22551214899
:1005100001F056FA01211F4801F09CF907B000BD17
:1005200008B525208DF8000000208DF801008DF819
:10053000020001208DF80300684601F0C8FA08BDEA
:1005400008B534208DF8000000208DF801008DF8EA
:10055000020001208DF80300684601F0B8FA08BDDA
:10056000014600BF704770B504460D4600BF4021EC
:10057000084801F04AFA0028F9D0E1B2054801F034
:1005800094F9204670BD00000000024000100140B8
:1005900000080240004C004010B50121084600F060
:1005A00089FFFF201E494860142008800020088130
:1005B0004880092088721B4801F0A1FB01211948DD
:1005C00001F0FCFB0021174801F010FC10BD154A9A
:1005D000928A42F00102134B9A821A46128A22F042
:1005E00001021A821A46128842F001021A80002182
:1005F0000DE000BF0B4A128A02F00102002AF9D076
:10060000084A128A22F00102064B1A82491C8142D2
:10061000EFDB044A128822F00102024B1A80704775
:10062000A0010020000001402DE9F0410024002538
:1006300000BF4021FE4801F0E8F90028F9D07921F7
:10064000FB4801F032F900BFFA480068FA4909682E
:10065000401A0228F8DBF948F7490968405C0402AF
:10066000F5490868411CF44A1160F449095C4D40A1
:10067000F24811460968405C044311460868411C71
:100680001160EE49095C4D4000BFEA480068EA4944
:100690000968411A601C012202EB40008142F4DB30
:1006A0000020002124E0024600EBD2735B10A0EB97
:1006B000430363B10B46491CE14E06EB430213882A
:1006C000DE4EDD4F3F68F65D3343138007E0DB4AC3
:1006D000D94B1B68D25C1202D94B23F81120D64BA0
:1006E0001A68531CD44E3360D44B9B5C5D40401C55
:1006F000621CB0EB420FD6DBCF490868411CCE4AE2
:100700001160CE49095C4D4045BB002622E0CC4932
:1007100031F81610C800022102F020F908280BD089
:1007200000BF4021C24801F070F90028F9D01F2114
:10073000BF4801F0BAF810E0A6420AD100BF40213C
:10074000BB4801F062F90028F9D07921B84801F0DE
:10075000ACF8761C601C8642D9DB0AE000BF402161
:10076000B34801F052F90028F9D01F21B04801F038
:100770009CF8BDE8F0812DE9F0470024A046002652
:10078000002500BF4021AA4801F03FF90028F9D018
:100790007921A74801F089F800BFA6480068A6495A
:1007A0000968401A0528F8DB002010E0A249096812
:1007B0000144A24A12F80180042805DAC0F10301BD
:1007C000CA0008FA02F10E4384EA0804401C052816
:1007D000ECDB99480068401D97490860002C63D104
:1007E000002003E00021954A1154401C91490968FA
:1007F0008842F7D300208F4908608F49086000BF06
:1008000040218B4801F001F90028F9D0792188486E
:1008100001F04BF800BF874800680028FBD08649EC
:100820000868411C844A116084490D5C00BF8148FE
:100830000168E81C8142FAD30024002003E07F49CC
:10084000095C4C40401CA91C8842F8DD64BB0027B1
:100850000DE0794AD2F8009009F10102764B1A6056
:10086000764A12F80910F01902F073F97F1CAF42B2
:10087000EFDD71480068401C6F4908600846006859
:100880006C490968884204D13246691C6D4802F0FF
:10089000A5FB00BF4021664801F0B7F80028F9D059
:1008A0007921634801F001F8BDE8F08770B504468E
:1008B00000252568284680F3088800BF6248046048
:1008C000666862A002F08AFB594800F0EDFE6848B5
:1008D00000F0EAFE674800F0F5FA674800F0F2FA27
:1008E000664801F05FF901F0FAFFB04770BD70B5DE
:1008F00000240025002600BF40214D4801F085F866
:100900000028F9D079214A4800F0CFFF00BF4948BC
:10091000006849490968401A0528F8DB00200EE004
:10092000454909680144454A555C042805DAC0F187
:100930000301CA0005FA02F10C436E40401C052871
:10094000EEDB3D480068401D3B4908605EB900BFD2
:100950004021374801F059F80028F9D0792134486E
:1009600000F0A3FF0AE000BF4021314801F04DF83C
:100970000028F9D01F212E4800F097FF2046FFF7EE
:1009800095FF70BDF8B500200090002600BF402103
:10099000274801F03AF80028F9D07921244800F0DE
:1009A00084FF00BF2348006823490968401A0528CE
:1009B000F8DB0026002500200EE01F4909680144ED
:1009C0001E4A545C042805DAC0F10301CA0004FA87
:1009D00002F10E436540401C0528EEDB002D74D16A
:1009E00000BF4021124801F010F80028F9D0792109
:1009F0000F4800F05AFF10480068401D0E4908607B
:100A000000BF0C4800680C490968401A0228F8DB4E
:100A10000A4809490968445C014607480068401CC7
:100A2000085C80EA0405FF2D50D100BF402127E07B
:100A300000100140040000201C0000206000002085
:100A4000B60100200C35000808ED00E04170706C24
:100A500069636174696F6E2050726F6772616D2097
:100A6000626567696E732E2E2E2E0D0A000000003F
:100A7000004C00400000024000080240000001401D
:100A8000BE4800F0C2FF0028D0D07921BB4800F05A
:100A90000CFF32462146BAA002F0A0FA00270BE074
:100AA00000BF4021B54800F0B0FF0028F9D0F15D4B
:100AB000B24800F0FAFE7F1C601C8742F0DBBC48A5
:100AC0000068801CBA49086017E00BE000BF4021B5
:100AD000AA4800F09AFF0028F9D01F21A74800F08B
:100AE000E4FE0AE000BF4021A44800F08EFF002889
:100AF000F9D01F21A14800F0D8FEF8BD10B50024A0
:100B00000CE000BF40219D4800F07FFF0028F9D095
:100B1000A848015D994800F0C8FE641C052CF0DB74
:100B200010BD10B500240CE000BF4021934800F038
:100B30006CFF0028F9D0A048015D904800F0B5FE98
:100B4000641C0F2CF0DB10BD30B502460023022AD6
:100B500025D10020994D2870994D95480068401C7A
:100B60002B5C2846924D2D68415D4B4090480068B3
:100B7000801C8F4D28600024FF2B0DD107E02046FC
:100B8000641C904D285C884201D1084630BD0B2C76
:100B9000F5DB4FF0FF30F9E74FF0FF30F6E74FF0AD
:100BA000FF30F3E700BF854800780028FBD0002025
:100BB0008249087084480068401E8149085C7F288B
:100BC00003D179216D4800F070FE79480068401C1F
:100BD0007749086072E07C48006875490968441AE2
:100BE000022C6BD30220FFF7AFFF31283CD00EDC84
:100BF00002281FD006DCB0F1FF3F5AD0A0B1012877
:100C00005BD127E011281BD0212856D126E073287C
:100C100036D004DC44282DD063284ED116E082283B
:100C200032D0922849D133E068A002F0D7F9FFF71B
:100C300078FF42E068A002F0D1F9FFF75FFF3CE0E7
:100C400067A002F0CBF9FFF79DFE36E068A002F046
:100C5000C5F932E06BA002F0C1F92EE06DA002F000
:100C6000BDF9FFF744FE28E06DA002F0B7F9FFF7E9
:100C700082FD22E06EA002F0B1F9FFF7D5FC1CE086
:100C80006FA002F0ABF918E072A002F0A7F914E02F
:100C900076A002F0A3F97921384800F006FE792108
:100CA000364800F002FE3220FFF791FCFFF77AFF92
:100CB00003E074A002F092F900BF00BF8BE770B5AB
:100CC0000546002600241EE000BF20212B4800F02E
:100CD0009CFE0028F9D0294800F0EBFD25F814000F
:100CE00015F814007040C6B215F81420364908688B
:100CF000411C354B196032490A5435F8141066A06E
:100D000002F06CF9641C042CDEDB2F4800682C49CF
:100D100008700EB9012070BD0020FCE770B500BF5F
:100D20002021164800F071FE0028F9D0134800F089
:100D3000C0FD044600BF2021104800F066FE0028D8
:100D4000F9D00E4800F0B5FD05461F490868411C62
:100D50001D4B19601A490C5419460868411C19604A
:100D600017490D5418460068087085EA0400FF28EA
:100D700001D1E0B270BD4FF0FF30FBE70010014041
:100D80005265616420253032782062797465205381
:100D900074617274696E672066726F6D204164645D
:100DA00072657373203078253038780D0A000000A2
:100DB0001C0000203400002020000020080000203B
:100DC000600000201000002004000020474554432C
:100DD0004D44200D0A00000047455449440D0A00C7
:100DE000524541444D454D4F52590D0A00000000F7
:100DF00057726974652050726F7465637465640D11
:100E00000A00000047455456455253494F4E0D0ABB
:100E100000000000474F434F4D4D414E440D0A0026
:100E200057524954454D454D4F52590D0A00000047
:100E3000455241534520436F6D6D616E640D0A004C
:100E4000577269746520556E70726F74656374654E
:100E5000640D0A0052656164206F75742070726FB2
:100E60007465637465640D0A000000005265616476
:100E7000206F757420756E70726F7465637465642D
:100E80000D0A0000556E6B6E6F776E20536571759D
:100E9000656E6365200D0A0025303278200D0A004A
:100EA0000648804706480047FEE7FEE7FEE7FEE704
:100EB000FEE7FEE7FEE7FEE7FEE7FEE7E12D0008BE
:100EC0008901000810B504468C48844208D10121EC
:100ED000084600F000FB0021012000F0FCFA5EE073
:100EE0008748844208D10121022000F0F4FA002151
:100EF000022000F0F0FA52E08248844208D1012139
:100F0000042000F0E8FA0021042000F0E4FA46E0B2
:100F10007D48844208D10121082000F0DCFA00213C
:100F2000082000F0D8FA3AE07848844208D101213C
:100F3000102000F0D0FA0021102000F0CCFA2EE0B2
:100F40007348844208D10121202000F0C4FA002116
:100F5000202000F0C0FA22E06E48844208D101212E
:100F6000402000F0B8FA0021402000F0B4FA16E06A
:100F70006948844208D10121802000F0ACFA0021A8
:100F8000802000F0A8FA0AE06448844207D10121D9
:100F9000801500F0A0FA0021A01500F09CFA10BD09
:100FA000F0B50A4600210023002400BF3DE00125E2
:100FB00005FA01F3156805EA03049C4234D105687B
:100FC0004F000326BE40B543056015794E00B5407D
:100FD0000668354305601579012D02D01579022D7B
:100FE00016D185684F000326BE40B543856055790C
:100FF0004E00B540866835438560456801268E40C1
:10100000B5434560456896798E40B6B23543456034
:10101000C5684F000326BE40B543C560D5794E0074
:10102000B540C6683543C560491C1029BFD3F0BD23
:101030004FF6FF7101600021017141718171C17131
:10104000704708B54FF480320092009A0A4300922C
:10105000009AC261C161009AC261C2690092C2690C
:10106000009208BD0246002013690B400BB101201D
:1010700000E0002070470146086980B270470246D0
:10108000002053690B400BB1012000E000207047A5
:101090000146486980B270470183704741837047B9
:1010A0000AB1018300E041837047416170474269A2
:1010B0004A4042617047F0B5002300244D07ED0E11
:1010C00002FA05F3CE1000F1200555F826504E0720
:1010D000F70E0F26BE40B543CF1000F1200646F8AC
:1010E0002750CE1000F1200555F8265045EA03049C
:1010F000CE1000F1200545F82640F0BD000002406A
:101100000004024000080240000C024000100240AF
:101110000014024000180240001C0240002002405F
:10112000FA48006840F00100F84908600020F749DB
:1011300008310860F5480068F5490840F34908603F
:10114000F448091D0860081F006820F48020091F6A
:1011500008600020ED490C31086070470021EB4A1F
:10116000921C117011460870704710B5014600229C
:10117000002300204A11012A02D1E44C236808E030
:10118000022A03D1E14C7034236802E0DF4C74344E
:10119000236801F01F02012494401C400CB101207F
:1011A00000E0002010BD38B500200090002400258C
:1011B00000BF3120FFF7D9FF05460098401C009082
:1011C0000098B0F5A06F01D0002DF2D03120FFF7CC
:1011D000CCFF08B1012400E00024204638BD0146C0
:1011E0000020CA4A106820F0F80040EAC1001060F0
:1011F0007047C949086070470021C44A70321170B5
:101200001170012802D004280AD104E00121BF4A4C
:101210007032117005E00521BC4A7032117000E097
:1012200000BF00BF7047BD490860704770B5049C9F
:1012300041EA82150126C6EB530645EA06450543F9
:1012400045EA0465B14E361D356070BDB249086689
:101250007047820142EA0172AC4B84331A607047D6
:10126000AD4988667047AC49C864704702460020A3
:10127000A64B0833186820F0EC6042EA01031843DB
:10128000A24B083318607047024600209F4B08337A
:10129000186820F0784042EA010318439B4B08335A
:1012A0001860704701460020984A0832106820F004
:1012B000030008431060704794480830006800F04D
:1012C0000C00704701460020904A0832106820F058
:1012D000F000084310607047014600208B4A083236
:1012E000106820F4E0500843106070470146002069
:1012F000864A0832106820F4604040EAC10010605D
:101300007047F0B5002100220024022500260223A8
:101310007E4F08373F6807F00C0121B1042905D042
:10132000082937D105E07E4F076036E07D4F076022
:1013300033E0764F3F1D3F68C7F38056734F3F1D24
:101340003F6807F03F036EB1764FB7FBF3F7DFF866
:10135000BCC10CF1040CDCF800C0CCF3881C07FB0A
:101360000CF40CE06E4FB7FBF3F7DFF8A0C10CF103
:10137000040CDCF800C0CCF3881C07FB0CF4634FB2
:101380003F1D3F68C7F301477F1C7D00B4FBF5F7A5
:10139000076002E0624F076000BF00BF5B4F083785
:1013A0003F6807F0F00109095F4F7A5C0768D74092
:1013B0004760564F08373F6807F4E051890A5A4F93
:1013C0007A5C4768D7408760504F08373F6807F41A
:1013D0006041490B544F7A5C4768D740C760F0BD05
:1013E000002100F44072B2F5407F0AD1474A08322A
:1013F000116821F4F8114D4A02401143434A083262
:101400001160424A70321268C0F30B031A433F4B1B
:1014100070331A60704741494439086070473F494A
:1014200040390860704742490860704739B1374A0F
:10143000303212680243354B30331A6006E0334ACB
:10144000303212688243314B30331A60704739B101
:101450002E4A3432126802432C4B34331A6006E0B1
:101460002A4A343212688243284B34331A60704758
:1014700039B1264A383212680243244B38331A6095
:1014800006E0224A383212688243204B38331A6011
:10149000704739B11D4A4032126802431B4B40333A
:1014A0001A6006E0194A403212688243174B4033F3
:1014B0001A60704739B1154A443212680243134B1F
:1014C00044331A6006E0114A4432126882430F4BDB
:1014D00044331A60704739B10C4A10321268024323
:1014E0000A4B10331A6006E0084A10321268824331
:1014F000064B10331A607047E1B1044A1432126887
:101500000243024B14331A6019E000000038024015
:10151000FFFFF6FE1030002400004742800E4742D5
:101520000024F40000127A0039000020FFFCFF0FB5
:101530005C0147425B4A126882435A4B1A6070470B
:1015400039B1584A121D12680243564B1B1D1A60CE
:1015500006E0544A121D12688243524B1B1D1A604A
:10156000704739B14F4A0C32126802434D4B0C336D
:101570001A6006E04B4A0C3212688243494B0C3326
:101580001A60704739B1474A103212680243454B1E
:1015900010331A6006E0434A103212688243414B0E
:1015A00010331A60704739B13E4A3C321268024328
:1015B0003C4B3C331A6006E03A4A3C3212688243A4
:1015C000384B3C331A60704739B1364A40321268A2
:1015D0000243344B40331A6006E0324A403212680C
:1015E0008243304B40331A60704739B12D4A443240
:1015F000126802432B4B44331A6006E0294A4432F6
:1016000012688243274B44331A60704739B1254A28
:101610004C3212680243234B4C331A6006E0214AD5
:101620004C32126882431F4B4C331A60704739B1F9
:101630001C4A5032126802431A4B50331A6006E0BB
:10164000184A503212688243164B50331A60704762
:1016500039B1144AD21F12780243124BDB1F1A70A1
:1016600006E0104AD21F127882430E4BDB1F1A701D
:1016700070470C486030006840F080700949603164
:101680000860704701460020064A083A12680A407E
:101690000AB1012000E0002070470249891F08704C
:1016A000704700001438024010B50446F7488442E1
:1016B00008D101211020FFF765FF00211020FFF75E
:1016C00061FF3EE0F248844209D101214804FFF75E
:1016D00048FF00214FF40030FFF743FF31E0ED48B1
:1016E000844209D101218804FFF73BFF00214FF418
:1016F0008020FFF736FF24E0E748844209D101212A
:10170000C804FFF72EFF00214FF40020FFF729FF48
:1017100017E0E248844209D101210805FFF721FFC3
:1017200000214FF48010FFF71CFF0AE0DC488442E0
:1017300007D101212020FFF725FF00212020FFF7FE
:1017400021FF10BD2DE9FF4705460E460024A146A6
:1017500000BFA046B08900B100BF2C8A24F44054D9
:10176000F08804432C82AC8941F20C608443B08839
:1017700031890843718908430443AC81AC8A24F45D
:101780004074B0890443AC826846FFF7BAFDBF4895
:10179000854202D0C248854202D1DDF80C9001E0BA
:1017A000DDF80890A88900F4004040B109EBC900B9
:1017B00000EB091031684900B0FBF1F707E009EBD5
:1017C000C90000EB091031688900B0FBF1F7642013
:1017D000B7FBF0F004012009642101FB1078A8890F
:1017E00000F4004040B1322000EBC800B0FBF1F043
:1017F00000F00700044308E0322000EB08106421E9
:10180000B0FBF1F000F00F0004432C81BDE8FF872E
:101810004FF41651016000218180C18001810C21AB
:10182000418100218181704710B502460020108A55
:1018300020F470600B884C8823438C882343CC8829
:1018400023431843108210BD002101804180818014
:10185000C180704721B1828942F40052828104E044
:1018600082894DF6FF731A4082817047028B02F421
:101870007F420283028B0A430283704721B182892F
:1018800042F40042828103E08289C2F30E02828127
:10189000704721B1828A42F40062828204E0828A27
:1018A0004FF2FF731A4082827047C1F308028280B0
:1018B000704701468888C0F308007047028A4FF6D7
:1018C000F0731A400282028A0A430282704721B1F1
:1018D000828942F00202828104E082894FF6FD7320
:1018E0001A408281704782894FF2FF731A408281C9
:1018F00082890A4382817047028A4FF6DF731A4059
:101900000282028A0A430282704721B1028A42F4AB
:101910008042028204E0028A4BF6FF731A40028280
:101920007047818941F001018181704721B1828A2C
:1019300042F00802828204E0828A4FF6F7731A406E
:1019400082827047028BD2B20283028B42EA01226A
:101950000283704721B1828A42F02002828204E031
:10196000828A4FF6DF731A408282704721B1828AE1
:1019700042F01002828204E0828A4FF6EF731A402E
:1019800082827047828A4FF6FB731A408282828A73
:101990000A438282704721B1828A42F00202828227
:1019A00004E0828A4FF6FD731A40828270471AB1B2
:1019B000838A0B43838202E0838A8B43838270474E
:1019C000F0B50346002400260025002040F66A17E3
:1019D000B94200D100BF1846C1F3421401F01F06FE
:1019E000012707FA06F5012C01D10C3004E0022C86
:1019F00001D1103000E014301AB107682F4307609E
:101A000002E00768AF430760F0BD02460020B1F571
:101A1000007F00D100BF13880B400BB1012000E014
:101A20000020704701F40072B2F5007F00D100BFC2
:101A3000CA430280704770B5024600240023002587
:101A4000002040F66A16B14200D100BFC1F3421532
:101A500001F01F03012606FA03F3012D02D1968936
:101A6000334006E0022D02D1168A334001E0968A07
:101A700033400C12012606FA04F41688344013B1E0
:101A80000CB1012000E0002070BD000000100140FA
:101A90000044004000480040004C0040005000401E
:101AA0000014014010B50022002340F66A14A14240
:101AB00000D100BF0A1201249440A3B2DC43048089
:101AC00010BD000032490143324A1160704770B5C1
:101AD000002100230F22C4781CB32E4C246804F488
:101AE000E064C4F5E064C4F30721C1F10404E3B287
:101AF0000A4144789C40E1B28478144021430C07A9
:101B0000210E254C05786155047804F01F05012449
:101B1000AC4005786D11AD0005F1E025C5F8004138
:101B200009E0047804F01F050124AC401B4D067841
:101B3000761145F8264070BD194A0A400243154BFC
:101B40001B1F1A60704739B1124A121D12680243F6
:101B5000104B1B1D1A6006E00E4A121D12688243CC
:101B60000C4B1B1D1A607047042808D14FF0E02170
:101B7000096941F004014FF0E022116107E04FF0E4
:101B8000E021096921F004014FF0E0221161704762
:101B90000000FA050CED00E000E400E080E100E068
:101BA00080FFFF1F10B50446FE48844208D1012182
:101BB0000846FFF7E7FC00210120FFF7E3FC9DE06A
:101BC000B4F1804F08D101210846FFF7CAFC00217B
:101BD0000120FFF7C6FC91E0F348844208D10121BF
:101BE0000220FFF7BEFC00210220FFF7BAFC85E0CF
:101BF000EE48844208D101210420FFF7B2FC002105
:101C00000420FFF7AEFC79E0E948844208D10121C5
:101C10000820FFF7A6FC00210820FFF7A2FC6DE0DA
:101C2000E448844208D101211020FFF79AFC0021EA
:101C30001020FFF796FC61E0DF48844208D10121C3
:101C40002020FFF78EFC00212020FFF78AFC55E0C2
:101C5000DA48844208D101210220FFF793FC0021D9
:101C60000220FFF78FFC49E0D548844209D10121C9
:101C70000804FFF787FC00214FF48030FFF782FC57
:101C80003CE0D048844209D101214804FFF77AFCA6
:101C900000214FF40030FFF775FC2FE0CA48844262
:101CA00009D101218804FFF76DFC00214FF4802049
:101CB000FFF768FC22E0C548844208D1012140209A
:101CC000FFF74FFC00214020FFF74BFC16E0C04817
:101CD000844208D101218020FFF743FC00218020AD
:101CE000FFF73FFC0AE0BB48844207D10121801581
:101CF000FFF737FC0021A015FFF733FC10BD0022D1
:101D00000288A84B98420ED0AC4B98420BD0B0F151
:101D1000804F08D0A44B984205D0A44B984202D0E3
:101D2000A34B984204D14FF68F731A404B881A4345
:101D3000A04B984207D0A04B984204D04FF6FF43E7
:101D40001A400B891A4302804B68C3620B880385D3
:101D5000944B984202D0994B984201D18B7A0386DA
:101D60000123838270474FF0FF31416000210180E1
:101D700001814180817270470185828270470A46E5
:101D8000002101884FF68F7319401143018070477D
:101D900041627047C16270470146486A7047014618
:101DA000088D704721B1028842F00202028004E0EF
:101DB00002884FF6FD731A400280704721B10288F5
:101DC00042F00402028004E002884FF6FB731A40DE
:101DD0000280704721B1028842F08002028004E054
:101DE00002884FF67F731A400280704702884FF6D0
:101DF000F7731A40028002880A4302807047028803
:101E00004FF6FF431A40028002880A43028070475F
:101E100021B1028842F00102028004E002884FF6FC
:101E2000FE731A400280704770B500240022002320
:101E3000058C4FF6FE7635400584028C8388048B32
:101E40004FF68F752C40B51E2C400D882C43751E07
:101E50002A408D892A434D882A43524DA84202D0F8
:101E6000564DA84213D14FF6F7752A40CD892A4323
:101E70004FF6FB752A408D882A434FF6FF652B40AD
:101E80004FF6FF552B400D8A2B434D8A2B43838001
:101E900004838D684563028470BD70B50024002200
:101EA0000023058C4FF6EF7635400584028C83883D
:101EB000048B48F6FF752C404FF6FF452C400D88EB
:101EC0004FF6FF7606EA05252C434FF6DF752A40CC
:101ED0008D8906EA05152A434D8806EA05152A4329
:101EE000304DA84202D0354DA8421DD14FF67F7526
:101EF0002A40CD894FF6FF7606EA05152A434FF6AC
:101F0000BF752A408D8806EA05152A434FF6FF352E
:101F10002B404FF2FF752B400D8A06EA85052B43B7
:101F20004D8A06EA85052B43838004838D6885638B
:101F3000028470BD70B5002400220023058C4FF68A
:101F4000FF6635400584028C8388848B4FF68F753D
:101F50002C404FF6FC752C400D882C434FF6FF5556
:101F60002A408D894FF6FF7606EA05252A434D88DB
:101F700006EA05252A430B4DA84202D00F4DA84280
:101F800038D14FF2FF752A40CD894FF6FF7606EA29
:101F900005252A434FF6FF352A408D8806EA052598
:101FA0002A4319E0000001400004004000080040FE
:101FB000000C0040001000400014004000040140EC
:101FC000004001400044014000480140001800402A
:101FD000001C0040002000404EF6FF752B404DF6DF
:101FE000FF752B400D8A06EA05152B434D8A06EA3C
:101FF00005152B43838084838D68C563028470BD7F
:1020000070B5002200230024058C4EF6FF76354083
:102010000584038C8488828B48F6FF752A404FF62E
:10202000FF452A400D884FF6FF7606EA05252A432C
:102030004DF6FF752B408D8906EA05352B434D88FB
:1020400006EA05352B43FE4DA84202D0FD4DA842BD
:1020500008D14BF6FF752C400D8A4FF6FF7606EA45
:1020600085152C43848082838D680564038470BD4C
:10207000002101804180818081608181C181018254
:102080004182704770B5034600200024184618307E
:1020900001258D40ACB21D8CA5431D8409B10829D2
:1020A0000AD100EB610005684FF68F763540056078
:1020B0000568154305600FE00D1FC5F34E05284464
:1020C000056848F6FF763540056005684FF6FF76EF
:1020D00006EA02263543056070BD4163704781639F
:1020E0007047C1637047016470470A460021018B45
:1020F0004FF68F7319401143018370470A46002140
:10210000018B48F6FF7319404FF6FF7303EA022371
:102110001943018370470A460021818B4FF68F7364
:1021200019401143818370470A460021818B48F68C
:10213000FF7319404FF6FF7303EA022319438183AB
:1021400070470A460021018B4FF6F773194011437F
:10215000018370470A460021018B4FF2FF7319403B
:102160004FF6FF7303EA02231943018370470A46BF
:102170000021818B4FF6F77319401143818370471B
:102180000A460021818B4FF2FF7319404FF6FF730F
:1021900003EA02231943818370470A460021018B19
:1021A0004FF6FB7319401143018370470A46002123
:1021B000018B4FF6FF3319404FF6FF7303EA0223FA
:1021C0001943018370470A460021818B4FF6FB7348
:1021D00019401143818370470A460021818B4FF6D5
:1021E000FF3319404FF6FF7303EA0223194381833B
:1021F00070470A460021018B4FF67F731940114347
:10220000018370470A460021018BC1F30E014FF68E
:10221000FF7303EA02231943018370470A46002132
:10222000818B4FF67F7319401143818370470A46B3
:102230000021818BC1F30E014FF6FF7303EA0223E5
:102240001943818370470A460021018C4FF6FD73C4
:1022500019401143018470470A460021018C4FF652
:10226000F77319401143018470470A460021018C1D
:102270004FF6DF7319404FF6FF7303EA0213194359
:10228000018470470A460021018C4FF67F73194084
:102290004FF6FF7303EA02131943018470470A469D
:1022A0000021018C4FF6FF5319404FF6FF7303EAEC
:1022B00002231943018470470A460021018C4FF222
:1022C000FF7319404FF6FF7303EA02231943018499
:1022D00070470A460021018C4DF6FF7319404FF6F6
:1022E000FF7303EA023319430184704730B50023BA
:1022F00001248C40A3B2048C9C430484048C02FA15
:1023000001F5ADB22C43048430BD30B50023042464
:102310008C40A3B2048C9C430484048C02FA01F523
:10232000ADB22C43048430BD828B4FF2FF331A4090
:102330008283828B4FF6FF7303EA01231A43828361
:102340007047F0B50C461546002100220026078C88
:102350004EF6FF7C07EA0C070784818B028C4FF650
:10236000FF7707EA043640F6FF4739404FF6FF771C
:1023700007EA052739434FF6FF7707EA0337394362
:1023800045F6FF773A4046F480573A43818302840A
:10239000F0BD828B4FF6F3731A408283828B0A431F
:1023A00082837047F0B50C461546002100220026B6
:1023B000078C4FF6FF6C07EA0C070784818B028CB1
:1023C0004FF6FF7707EA04264FF60C7739404FF6B1
:1023D000FF7707EA03172F4339434FF2FF573A407D
:1023E00046F480773A4381830284F0BD028B4FF23A
:1023F000FF331A400283028B4FF6FF7303EA012377
:102400001A4302837047F0B50C461546002100229E
:102410000026078C4FF6EF7C07EA0C070784018B38
:10242000028C4FF6FF7707EA041640F6FF47394063
:102430004FF6FF7707EA033739434FF6FF7703E09C
:10244000000001400004014007EA052739434FF628
:102450005F773A4046F010073A4301830284F0BDAB
:10246000028B4FF6F3731A400283028B0A430283F6
:102470007047F0B50C46154600210022068C4FF639
:10248000FE773E400684018B028C4FF60C7631407D
:102490007E1C06EA03162E4331434FF6F576324092
:1024A00044F00106324301830284F0BD70B5054655
:1024B0000C46208850B92389A28861882846FFF7F6
:1024C000D8FFE1882846FFF7CBFF25E020880428C5
:1024D0000AD12389A28861882846FFF794FFE18802
:1024E0002846FFF783FF17E0208808280AD12389B0
:1024F000A28861882846FFF755FFE1882846FFF744
:1025000048FF09E02389A28861882846FFF719FF60
:10251000E1882846FFF708FF70BD00210180418057
:10252000012181800021C180018170472DE9F041A6
:1025300005460C4600260127608808B9022600E0FF
:102540000026A088012801D1022700E00127208869
:10255000A0B92389A28861882846FFF78AFFE1880D
:102560002846FFF77DFF23893A4631462846FFF784
:102570004AFFE1882846FFF739FF13E02389A28844
:1025800061882846FFF73FFFE1882846FFF72EFFC6
:1025900023893A4631462846FFF76BFFE1882846F3
:1025A000FFF75EFFBDE8F0810146486B70470146CA
:1025B000886B70470146C86B70470146086C7047CE
:1025C0000A884B881A438B881A43CB881A430B8995
:1025D0001A434B891A438B891A43A0F84420704749
:1025E0000021018041808180C18001814181818100
:1025F000704731B1B0F8442042F40042A0F84420C2
:1026000005E0B0F84420C2F30E02A0F84420704761
:1026100021B1828842F00402828004E082884FF671
:10262000FB731A408280704721B1828842F0010218
:10263000828004E082884FF6FE731A4082807047E1
:102640001AB183890B43838102E083898B438381A1
:1026500070478182704702460020138A0B400BB1FD
:10266000012000E000207047CA430282704730B565
:102670000246002000230024158A05EA01039589FB
:1026800005EA010413B10CB1012000E0002030BDC7
:10269000CA430282704741EA0203A0F848307047FB
:1026A0001AB183890B43838102E083898B43838141
:1026B000704721B1828842F00802828004E082885B
:1026C0004FF6F7731A408280704701894FF6F8720F
:1026D0001140018170470A46002101894FF68F732E
:1026E000194011430181704730B504460D46294613
:1026F0002046FFF7F0FF208940F00700208130BD21
:102700002DE9F04104460D4616461F46602D06D1C0
:102710003B46012231462046FFF775FE05E03B4669
:10272000012231462046FFF7A4FE29462046FFF746
:10273000D2FF208940F007002081BDE8F08130B54C
:102740000C4600210189C9B24FF6FF7505EA032541
:10275000154325432943018130BD2DE9F04105464C
:102760000E4617469846002443463A4631462846C8
:10277000FFF7E5FF2C894FF6F870044044F007049A
:102780004FF68F70044044F070042C81BDE8F08156
:10279000F0B504460D4616461F463B4632462946CE
:1027A0002046FFF7CCFF208940F480402081F0BD17
:1027B00082884FF68F731A40828082880A43828013
:1027C000704702894FF6F8731A40028102890A4362
:1027D0000281704702894FF67F731A400281028995
:1027E0000A4302817047F0B50C4615461E4600218B
:1027F000002200230189028B038C4FF6F8773940C1
:1028000021434FF6FC473A4040F201173A434FF656
:10281000DD773B404FF6FF7707EA06172F433B4330
:10282000018102830384F0BD21B1828842F08002DD
:10283000828004E082884FF67F731A40828070475E
:10284000A0F8501070470000FE4A1070704730B179
:10285000FC49096841F48071FA4A116005E0F949C0
:10286000096821F48071F74A1160704730B1F54969
:10287000096841F40071F34A116005E0F149096803
:1028800021F40071EF4A1160704730B1ED490968D9
:1028900041F48061EB4A116005E0EA49096821F4DE
:1028A0008061E84A11607047E648006840F40060C3
:1028B000E44908607047E348006840F48050E1490B
:1028C00008607047DF481030006800F0004028B111
:1028D000DD48DC49091D0860DC4808607047D948BC
:1028E0001030006840F00040D64910310860704751
:1028F0000820D4490C31096801F48031B1F5803FDA
:1029000001D1012018E0CF490C31096801F0100114
:1029100009B1052010E0CB490C31096801F0EF0145
:1029200009B1062008E0C7490C31096801F002012D
:1029300009B1072000E00820704708B50820009082
:10294000FFF7D6FF009002E0FFF7D2FF00909DF85E
:1029500000000128F8D09DF8000008BD70B50446BD
:102960000A460026082502B909E0012A01D116020B
:1029700005E0022A01D1160201E04FF44076FFF78C
:10298000DCFF0546082D2DD1AE481030006820F43C
:102990004070AC4910310860084600683043086058
:1029A0000846006820F0F80008600846006844F017
:1029B00002010843A349103108600846006840F44A
:1029C00080300860FFF7B9FF05469E481030006868
:1029D00020F002009B49103108600846006820F092
:1029E000F8000860284670BD30B50246002508246E
:1029F000FFF7A3FF044602B909E0012A01D115023D
:102A000005E0022A01D1150201E04FF44075082CBF
:102A100020D18C481030006820F440708949103172
:102A2000086008460068284308600846006840F0CF
:102A3000040008600846006840F480300860FFF732
:102A40007CFF04467F481030006820F004007D4978
:102A500010310860204630BD70B5064614461D464C
:102A60000822FFF76AFF0246082A1ED17548103077
:102A7000006820F44070734910310860084600680F
:102A800040F4407008600846006840F001000860AB
:102A900034607560FFF751FF02466A4810300068E5
:102AA00020F00100674910310860104670BD30B554
:102AB00002460C460825FFF740FF0546082D1DD1AC
:102AC00060481030006820F440705E4910310860A2
:102AD0000846006840F4007008600846006840F04E
:102AE000010008601460FFF728FF054655481030C4
:102AF000006820F00100534910310860284630BDBD
:102B000030B502460C460825FFF717FF0546082D8D
:102B10001DD14C481030006820F4407049491031F4
:102B200008600846006840F4807008600846006845
:102B300040F0010008601480FFF7FFFE05464148A1
:102B40001030006820F001003E491031086028462E
:102B500030BD30B502460C460825FFF7EEFE0546AF
:102B6000082D1BD137481030006820F440703549DB
:102B7000103108600846006808600846006840F0A8
:102B8000010008601470FFF7D8FE05462D4810308C
:102B9000006820F001002B4910310860284630BD44
:102BA00028481430006800F0010028B12848254961
:102BB00008310860274808607047224814300068D0
:102BC00040F001001F4914310860704730B50246DB
:102BD0000C460825FFF7B1FE0546082D10D13CB183
:102BE000184816300088904316491631088007E0CF
:102BF00014481630008891B20843124916310880F3
:102C000030BD10B502460824FFF797FE0446082C95
:102C100002D10C481530027010BDF0B504460D46C7
:102C2000FF260827FFF789FE0746082F16D105481B
:102C30001430007800F00F0645EA060010432043E8
:102C4000004909E0003C024023016745AB89EFCD14
:102C50003B2A19087F6E5D4C14310870F0BD28497D
:102C6000097821F00C01264A1170114609780143B8
:102C70001170704700B508222148007840F002002A
:102C80001F490870FFF759FE0246104600BD1C4858
:102C90000068C0F3471070471948801C00887047CF
:102CA00000201749491C0978AA2901D0012000E019
:102CB000002070471248007800F00C00704739B1CE
:102CC0000F4A121F126802430D4B1B1F1A6006E0C9
:102CD0000B4A121F12688243094B1B1F1A60704770
:102CE00001460020064A083A12680A400AB101204B
:102CF00000E0002070470249083908607047000072
:102D0000143C02400CB50020019000907648006809
:102D100040F480307449086000BF7348006800F4D4
:102D2000003000900198401C0190009818B901985B
:102D3000B0F5A06FF1D16C48006800F4003010B11C
:102D40000120009001E0002000900098012846D169
:102D500065484030006840F0805063494031086069
:102D60006248006840F48040604908605E4808306E
:102D700000685D49083108600846006840F400407A
:102D800008600846006840F4A05008605848091FD1
:102D90000860081F006840F08070091F086000BFCD
:102DA0005148006800F000700028F9D040F205603A
:102DB000504908604C480830006820F003004A4938
:102DC000083108600846006840F00200086000BF53
:102DD00045480830006800F00C000828F8D10CBD08
:102DE00010B54548006840F47000434908603E480B
:102DF000006840F001003C49086000203A49083171
:102E00000860394800683D490840374908603C4837
:102E1000091D0860081F006820F48020091F086051
:102E2000002031490C310860FFF76CFF4FF0006063
:102E300031498039086010BD70B50020002202239E
:102E400000240221284D08352D6805F00C0020B122
:102E5000042806D0082834D107E02A4D2A4E3560D0
:102E600033E02A4D284E35602FE01F4D2D1D2D6873
:102E7000C5F380541C4D2D1D2D6805F03F0154B144
:102E8000224DB5FBF1F5184E361D3668C6F388168F
:102E900005FB06F209E01B4DB5FBF1F5124E361DA0
:102EA0003668C6F3881605FB06F20F4D2D1D2D68FA
:102EB000C5F301456D1C6B00B2FBF3F5124E356096
:102EC00003E0104D104E356000BF00BF064D0835C1
:102ED0002D68C5F303150E4E705D0B4D2D68C54072
:102EE000094E356070BD000000380240007000409F
:102EF00019544007003C024088ED00E0FFFFF6FE59
:102F0000103000240024F4004C00002000127A004D
:102F1000500000202DE9F05F0546002092469B46B8
:102F200088460646814640241BE0284641464746DF
:102F3000224600F042F853465A46C01A914110D337
:102F400011461846224600F029F82D1A67EB0108B1
:102F50004F4622460120002100F020F817EB00091F
:102F60004E41201EA4F10104DFDC484631462A46CA
:102F70004346BDE8F09F0000064C074D06E0E068C0
:102F800040F0010394E8070098471034AC42F6D3B0
:102F9000FDF7FEF85435000874350008202A04DBDC
:102FA000203A00FA02F1002070479140C2F120035C
:102FB00020FA03F3194390407047202A04DB203A9B
:102FC00021FA02F00021704721FA02F3D040C2F149
:102FD0002002914008431946704700000FB4054B8A
:102FE00010B503A9044A029800F018F810BC5DF867
:102FF00014FB0000670500080C00002002E008C870
:10300000121F08C1002AFAD170477047002001E062
:1030100001C1121F002AFBD1704700002DE9FF4FAC
:103020008DB00F460546002606E025280BD0DDE9C9
:103030000F1290476D1C761C28780028F5D111B02E
:103040003046BDE8F08F0024A246A1460122EC499B
:1030500000E0044315F8013F203B02FA03F0084268
:10306000F7D128782A2810D06FF02F022878A0F105
:103070003001092914D80AEB8A0102EB410144F01E
:10308000020400EB010A6D1CF0E701CF5FEA000AC1
:1030900003D544F40054CAF1000A44F002046D1C44
:1030A00028782E2817D115F8010F44F004042A2897
:1030B0000ED06FF02F022878A0F1300109290AD82C
:1030C00009EB890102EB410100EB01096D1CF2E7FC
:1030D00057F8049B6D1C28786C280FD006DC4C2810
:1030E00017D068280DD06A2814D104E0742810D0B5
:1030F0007A280FD10DE044F400140AE044F480145F
:1031000001E044F440146978814202D104F580144E
:103110006D1C6D1C2A786E2A1FD00CDC632A31D0FE
:1031200004DC002A8BD0582A11D1A3E0642A68D08D
:10313000692A0CD165E0732A2ED004DC6F2A73D083
:10314000702A04D19BE0752A6FD0782A6ED0104681
:10315000DDE90F129047761C50E1C4F302500228BB
:1031600006D0032809D0042801CF09D0066045E124
:1031700001CFF117C0E9006140E101CF06803DE1D8
:1031800006703BE117F8040B8DF8000000208DF865
:103190000100EB46012003E057F804BB4FF0FF307D
:1031A00061074FF0000102D40DE008F101018846EB
:1031B00049450FDA8045F8DB1BF808100029F4D1E7
:1031C00008E008F1010188468142FADB1BF808108B
:1031D0000029F6D1DDE90F23AAEB0800814621463C
:1031E00000F036F9304400EB080604E0DDE90F1288
:1031F0001BF8010B9047B8F10108F7D22146484669
:10320000F7E00A21C4F302534FF0000B0891022BA0
:1032100004D001CFC117032B09D00AE0FF1D27F00E
:103220000707F7E8020108E032E01FE020E000B203
:10323000C117042B01D140B2C117031E71F1000365
:1032400007DA4FF0000CD0EB0C006CEB01012D23E2
:1032500002E0230504D52B238DF82430012303E05D
:10326000E30701D02023F7E7984658E00A2110E051
:1032700010210EE010204FF0000B08900CE0102100
:103280004FF0000B44F004044FF00809089103E0EC
:1032900008214FF0000B0891C4F30253022B04D015
:1032A00001CF0021032B06D006E0FF1D27F0070702
:1032B000F7E8020103E080B2042B00D1C0B24FF066
:1032C000000823072BD5702A07D0DDF820C08CF02A
:1032D000100C5CEA0B0C05D00EE040238DF8243076
:1032E000012308E050EA010306D030238DF8243092
:1032F0008DF8252002239846DDF820C08CF0080CBC
:103300005CEA0B0C0BD150EA010301D1630706D52F
:1033100030238DF824304FF00108A9F10109582A13
:1033200004D038A20B9208AA0A920BE03AA2F9E75D
:103330005B46089AFFF7EEFD0B9B9B5C0A9A521EB8
:103340000A92137050EA0102F2D10A98ADEB000024
:1033500000F1200B600702D524F4803401E04FF027
:103360000109D94502DDA9EB0B0000E0002000EBCC
:103370000B0141440890AAEB010AE00306D4DDE901
:103380000F232146504600F063F806444FF0000931
:1033900008E009A911F80900DDE90F12904709F1C9
:1033A0000109761CC145F4DBE0030CD5DDE90F23F0
:1033B0002146504600F04CF8064404E0DDE90F12C7
:1033C00030209047761C0899481E08900029F5DCAB
:1033D00008E00A980A990078491C0A91DDE90F1261
:1033E0009047761CBBF10001ABF1010BF1DC2146EB
:1033F0005046DDE90F2300F019F806446D1C1BE66A
:1034000009280100303132333435363738396162BA
:10341000636465660000000030313233343536377E
:103420003839414243444546000000002DE9F0414F
:10343000044600251E461746880404D405E0394694
:103440002020B0476D1C641EF9D52846BDE8F081E8
:103450002DE9F041044600251E469046C80301D5DB
:10346000302700E02027880404D505E0414638468F
:10347000B0476D1C641EF9D52846BDE8F0810000F8
:10348000456E746572696E6720426F6F746C6F6110
:103490006465722055736520466C617368204465CD
:1034A0006D6F20536F6674776172652077697468F9
:1034B000200D0A09426175642052617465202D2037
:1034C0003131353230300D0A095061726974792D0D
:1034D000204576656E0D0A094461746162697473F2
:1034E000202D20380D0A094563686F202D2044697E
:1034F0007361626C65640D0A0954696D6F75742897
:103500007329202D2031300D0A00000053756363AC
:1035100065737366756C6C79207772697474656E07
:10352000202564206E756D626572206F6620427979
:10353000746573205374617274696E672066726F6C
:103540006D2041646472657373203078253038785B
:10355000200D0A0074350008000000206000000003
:10356000FC2F0008D435000860000020780500001A
:103570000C30000800000000000000000000000007
:1035800000000000000102112131446373829200A7
:1035900000000000790B31000102112131446373F6
:1035A0008292790000000000790104137900000084
:1035B00000010203040102030406070809000000D9
:1035C000007A030A0000000000000000010203046A
:0435D00006070809D9
:040000050800018965
:00000001FF
